:100000000C94DB000C9403010C9403010C94030189
:100010000C9403010C9403010C9403010C94030150
:100020000C9403010C9403010C94E8030C94570402
:100030000C9403010C9403010C9403010C94030130
:100040000C9403010C9403010C9403010C94030120
:100050000C9403010C9403010C9403010C94890685
:100060000C9403010C9403010C9403010C94030100
:100070000C9403010C9403010C9403010C940301F0
:100080000C9403010C9403010C9403010C940301E0
:100090000C9403010C9403010C9403010C940301D0
:1000A0000C9403010C9403010C940301080B00024F
:1000B0000202000009040000010202000005240001
:1000C0001001052401010104240206052406000193
:1000D0000705810310004009040100020A00000026
:1000E00007050202400000070583024000000403E8
:1000F000090412010002EF02014041233680000191
:100100000102030141726475696E6F204C4C43001B
:1001100041726475696E6F204C656F6E6172646FB9
:100120000000000000250028002B002E00310000F8
:10013000000000240027002A002D003000000000ED
:10014000002300260029002C002F000404040404CE
:10015000030405020202020403020202020606066A
:100160000606060404020202040404080201104008
:100170008040102040804080080204018040201010
:100180000201108010204040200000000200090FF2
:100190000000030401000C0000000000000000004B
:1001A0000000000000000000070605040100080A26
:1001B0000B0C0D09C30811241FBECFEFDAE0DEBF20
:1001C000CDBF11E0A0E0B1E0E4E0F2E102C00590B3
:1001D0000D92A635B107D9F721E0A6E5B1E001C03F
:1001E0001D92AD3DB207E1F710E0CBEDD0E004C0C9
:1001F0002197FE010E94FA08CA3DD107C9F70E9463
:10020000D3060C9400090C940000FC0180918C0131
:10021000882311F13FB7F89482E08093E9002091A0
:10022000F200822F90E01816190614F481E090E095
:10023000882339F0289844E640938B014091F100DF
:100240004083222339F02091F200211103C02BE6D4
:100250002093E8003FBF08958FEF9FEF08952FB7D9
:10026000F89483E08093E9009091E800892F8072F0
:1002700095FF04C09091F20080E4891B2FBF089580
:100280008091830181110DC082E080937F0184E021
:1002900080938001109282011092810181E080930D
:1002A00083018FE791E008954091610150916201CF
:1002B00020915F013091600142175307B4F490918F
:1002C000E8009570E1F39091E80092FD19C08093E9
:1002D000F100809161019091620101968F739927DD
:1002E000892B19F48EEF8093E80080916101909141
:1002F00062010196909362018093610181E008950B
:1003000080E00895EF92FF920F931F93CF93DF93B6
:10031000F82E192FE62E042F81E0860F880F0E94F9
:10032000540183E00E945401CF2DD12FEC0EFD2EFD
:10033000F11CCE15DF05B9F007FF13C0FE01849153
:100340000E945401182F80E00E94540181232196BD
:100350008111EFCFDF91CF911F910F91FF90EF901F
:1003600008958881EDCF81E0F5CFDF92EF92FF9283
:100370000F931F93CF93DF93D82E8A01EB017B015C
:10038000E40EF51ECE15DF0559F0D7FE12C0FE01B2
:1003900084910E94540121968111F4CF0FEF1FEF39
:1003A000C801DF91CF911F910F91FF90EF90DF90E7
:1003B00008958881EECF0F931F93CF93DF931F9201
:1003C000CDB7DEB782E0898342E450E06CEA70E0AA
:1003D00080E80E94B5010E944001DC0112960D9157
:1003E0001C910115110589F0D801ED91FC91028055
:1003F000F381E02DBE016F5F7F4FC801099597FD26
:1004000004C0F80100851185ECCF89810F90DF9140
:10041000CF911F910F910895615030F02091F1001C
:10042000FC0120830196F8CF289884E680938B0105
:100430000895CF93DF931F92CDB7DEB76983DC01B8
:10044000ED91FC910280F381E02D41E050E0BE018E
:100450006F5F7F4F09950F90DF91CF91089583E0F3
:100460008093E9008091F200882319F08AE3809359
:10047000E80008950E942F0190E00895CF93DF9344
:100480001F92CDB7DEB7FC018485958597FD08C026
:100490002FEF3FEF358724870F90DF91CF9108959D
:1004A000CE0101960E940501019719F4898190E01F
:1004B000F3CF8FEF9FEFF0CF0F931F93CF93DF9387
:1004C0001F92CDB7DEB78C01FC018485958597FF1F
:1004D0000BC0CE0101960E940501019771F489813C
:1004E00090E0F80195878487F801848595850F90C1
:1004F000DF91CF911F910F9108958FEF9FEFF1CF73
:10050000FC018485958597FD0BC09FB7F89482E028
:100510008093E9008091F2009FBF90E001960895DA
:100520009FB7F89482E08093E9008091F2009FBF2A
:1005300090E008953FB7F89480915B0190915C0141
:10054000A0915D01B0915E0126B5A89B05C02F3F2B
:1005500019F00196A11DB11D3FBFBA2FA92F982FE9
:100560008827BC01CD01620F711D811D911D42E0E4
:10057000660F771F881F991F4A95D1F708958F92AC
:100580009F92AF92BF92CF92DF92EF92FF924B0178
:100590005C010E949A026B017C010E949A026C1914
:1005A0007D098E099F09683E734081059105A8F376
:1005B00021E0821A9108A108B10888EEC80E83E0F4
:1005C000D81EE11CF11C81149104A104B10429F787
:1005D000FF90EF90DF90CF90BF90AF909F908F9063
:1005E00008958F929F92AF92BF92CF92DF92EF9237
:1005F000FF920F931F93CF93DF936C017B018A01CE
:1006000080910B01882309F45CC080918C018823C0
:1006100009F457C08091650180FF05C08091E0001A
:1006200082608093E000E801B12C8AEFA82E93E06D
:10063000892E2AE3922E209711F4BB20D9F10E9433
:100640002F0181110AC0AA94AA20D9F161E070E0BB
:1006500080E090E00E94BF02EECF8C171D0611F0E3
:100660000CF08C2F9FB7F8948092E9002091E8005D
:1006700025FD02C09FBFDFCF282F30E0C21BD30B68
:10068000F701815020F041914093F100FACFE20E42
:10069000F31EBB2021F09092E800B12CEBCF8091AB
:1006A000E80085FDE7CF9092E800BB24B394209743
:1006B00009F3F3CF5D9884E6809364011016110668
:1006C0003CF081E090E0F6019383828310E000E04B
:1006D000C801DF91CF911F910F91FF90EF90DF90B4
:1006E000CF90BF90AF909F908F900895FC010190A4
:1006F0000020E9F73197AF01481B590BBC018DE889
:1007000091E00C94F1028F929F92AF92BF920F935F
:100710001F93CF93DF93CDB7DEB7A1970FB6F894B1
:10072000DEBF0FBECDBF19A2423008F44AE08E01F1
:100730000F5D1F4F842E912CB12CA12CA50194018B
:100740000E94D808E62FB901CA01EA30F4F4E05D4E
:10075000D801EE938D01232B242B252B79F790E0E4
:1007600080E0109719F0CD010E947603A1960FB694
:10077000F894DEBF0FBECDBFDF91CF911F910F91D7
:10078000BF90AF909F908F900895E95CE1CFCF929A
:10079000DF92EF92FF92CF93DF936B017C016DE2CA
:1007A0008DE891E00E941902EC0166277727CB01C2
:1007B0006C197D098E099F094AE00E9483038C0F02
:1007C0009D1FDF91CF91FF90EF90DF90CF90089524
:1007D0001F920F920FB60F9211248F939F938091C7
:1007E000E1009091E100937F9093E10083FF0FC0BF
:1007F0001092E90091E09093EB001092EC0092E3EC
:100800009093ED0010928C0198E09093F00082FF9D
:1008100022C093E09093E9009091F200992319F09F
:100820009AE39093E80090916401992341F09091AC
:100830006401915090936401911101C05D9A90916F
:100840008B01992341F090918B01915090938B01F2
:10085000911101C0289A84FF18C08091E2008E7E19
:1008600081608093E2008091E1008F7E8093E100BF
:10087000809165018E7E8061809365019F918F914B
:100880000F900FBE0F901F90189580FFF7CF8091AB
:10089000E2008E7E80618093E2008091E1008E7E96
:1008A0008093E100809165018E7E8160E5CF1F928B
:1008B0000F920FB60F921124CF92DF92EF92FF9218
:1008C0000F931F932F933F934F935F936F937F9358
:1008D0008F939F93AF93BF93EF93FF93CF93DF9348
:1008E000CDB7DEB76C97DEBFCDBF1092E900809127
:1008F000E80083FF25C068E0CE0145960E940C0207
:1009000082EF8093E8008D8987FF39C09091E800DD
:1009100090FFFCCF982F907609F034C19E894F89C3
:10092000588D2F89F88C911131C0803861F58091F4
:1009300066018093F1001092F1008EEF8093E80041
:100940006C960FB6F894DEBF0FBECDBFDF91CF918E
:10095000FF91EF91BF91AF919F918F917F916F9197
:100960005F914F913F912F911F910F91FF90EF90C9
:10097000DF90CF900F900FBE0F901F9018959EEFB5
:100980009093E800C7CF1092F100D5CF913059F481
:100990008111D3CF4130510581F6809166018D7F61
:1009A00080936601CACF933049F48111C6CF41309C
:1009B000510519F6809166018260F2CF953041F4BD
:1009C0008091E80080FFFCCF20682093E300B5CF42
:1009D000963009F0A9C00B8D1C8D22E01092E90021
:1009E0001092620110926101F2122EC01092600109
:1009F00010925F010E94DB011F8299E09983FA82C5
:100A000091E09E8390EA98879AEF998720916101FF
:100A100030916201275F3F4F3C832B838D8310927F
:100A2000E90010926201109261011093600100933D
:100A30005F0149E050E0BE016F5F7F4F80E00E94A0
:100A4000B5010E94DB0179CF1093600100935F0133
:100A50000E944001DC0112960D911C9101151105B7
:100A600009F451C1D801ED91FC910480F581E02D8C
:100A7000BE016B5E7F4FC8010995009709F03EC12A
:100A8000F80100851185EACFF3E0FF120EC08F89CF
:100A9000882309F440C0823061F440E860E180E1DD
:100AA00091E00E948201811148CF81E28093EB00A6
:100AB00047CF813029F440E86BE084E091E0F1CF4A
:100AC000833099F70E944001DC011296ED90FC9072
:100AD0008E010F5F1F4F6801E114F10479F0D70117
:100AE000ED91FC910680F781E02DB801C7010995D1
:100AF000080F111DF701E084F184EECFD8011C929C
:100B0000F60101900020E9F73197BF016C197D09CA
:100B100040E0C601C6CF6EEE70E0FB01449150E0AC
:100B200080E80E94B50109CF973009F4BECF983014
:100B300021F481E08093F10000CF993009F0FDCEDF
:100B4000837009F0B2CFEFE1F1E081E031E096E3AC
:100B50002191222371F08093E9003093EB00DF01B3
:100B600011972C912093EC009093ED008F5F8730CC
:100B700079F78EE78093EA001092EA008F898093DC
:100B80008C01DBCE8B8D9C8D1092E900109262015E
:100B9000109261019093600180935F01898D8111B2
:100BA00092C08E899D89913A49F4813209F07DCFB6
:100BB00047E050E064E071E080E0B3CF913209F0AB
:100BC00074CF833269F48F89988DB0E0A0E0809370
:100BD000000190930101A0930201B0930301ADCEF7
:100BE000803269F48091E80082FFFCCF67E084E006
:100BF00091E00E940C028BEF8093E8009ECE82323F
:100C000009F09BCE8F8980930B01EEEFFFE7859172
:100C100094918B3F9C4D51F1E0E0F8E0809104010C
:100C200090910501A0910601B0910701803B94408D
:100C3000A105B105F1F480910B0180FD1AC0EE3FD2
:100C40008AE0F80789F587E797E7918380838091A9
:100C500060008093630188E19BE00FB6F894A8954B
:100C6000809360000FBE9093600067CEEEEFFAE0D5
:100C7000D5CF808191818737974709F05ECEA895BF
:100C8000809160008861809360008091630180930F
:100C90006000EE3F2AE0F20789F08091FE0A909111
:100CA000FF0A9183808349CE80819181873798079D
:100CB00051F29093FF0A8093FE0AC5CF1092FF0A6B
:100CC0001092FE0A3ACE0E944001DC0112960D916C
:100CD0001C910115110509F4E8CED801ED91FC91A4
:100CE0000190F081E02DBE016B5E7F4FC801099538
:100CF000811123CEF80100851185EBCF1816190656
:100D00000CF41BCED2CEF1E0FF12BECE62EF70E04B
:100D100004CF1F920F920FB60F9211242F933F937F
:100D20008F939F93AF93BF938091570190915801F8
:100D3000A0915901B0915A013091560123E0230F3F
:100D40002D3758F50196A11DB11D209356018093B2
:100D5000570190935801A0935901B0935A01809183
:100D60005B0190915C01A0915D01B0915E010196E3
:100D7000A11DB11D80935B0190935C01A0935D0167
:100D8000B0935E01BF91AF919F918F913F912F9151
:100D90000F900FBE0F901F90189526E8230F029614
:100DA000A11DB11DD2CF789484B5826084BD84B575
:100DB000816084BD85B5826085BD85B5816085BD56
:100DC00080916E00816080936E001092810080910E
:100DD0008100826080938100809181008160809396
:100DE00081008091800081608093800080919100DB
:100DF0008260809391008091910081608093910046
:100E0000809190008160809390008091C100846007
:100E10008093C1008091C10082608093C100809165
:100E2000C10081608093C1008091C3008160809384
:100E3000C3008091C00082608093C0008091C20096
:100E400081608093C20080917A00846080937A00F0
:100E500080917A00826080937A0080917A0081602C
:100E600080937A0080917A00806880937A00109253
:100E70008C0110926601109265018091D70081600B
:100E80008093D70080EA8093D80089B5806189BDBE
:100E900089B5826089BD09B400FEFDCF61E070E0D4
:100EA00080E090E00E94BF028091D8008F7C80613A
:100EB0008093D8008091E000807F8093E000809153
:100EC000E1008E7E8093E1008DE08093E200559AF0
:100ED000209AC9E2D1E0899190E0FC01E659FE4FE9
:100EE0002491855B9E4FFC0184918823C9F090E09A
:100EF000880F991FFC01E15DFE4F45915491FC0163
:100F0000EF5DFE4FA591B4919FB7F894FA0130813F
:100F1000822F809583238083EC912E2B2C939FBF6F
:100F2000F1E0C933DF07B9F68FEF9FEF90939A0195
:100F30008093990197E2E92E91E0F92E2BE7C22EDA
:100F400021E0D22E30E0A32E30E0B32E0BE611E0EC
:100F50009801A9E2B1E08D9190E0FC01E757FE4FC6
:100F60005491FC01E659FE4F4491855B9E4FFC0174
:100F70008491882309F42CC05523E9F051505F3047
:100F8000D0F4E52FF0E0E953F84F0C94FA089308F9
:100F90009708D6078B088F08DB07DB07DB079A0863
:100FA000A008A408A808AE08DB07B208909180004A
:100FB0009F7790938000E82FF0E0EE0FFF1FE35C37
:100FC000FE4F85919491FC018081482381E009F4D2
:100FD00080E0F90181939F01CA17DB0709F0BBCFBD
:100FE000A5E2B1E087E691E0ED91E23108F0E2514F
:100FF000F0E0E855FE4FE49130917B002E2F220F58
:10100000220F20723F7D232B20937B00E770E0644A
:10101000E0937C0020917A00206420937A00209154
:101020007A0026FDFCCF30917800209179002327AB
:1010300032272327FC0121933193CF01EA16FB06C7
:1010400099F66BE18DE891E00E94190289E391E045
:101050000E9476036BE18DE891E00E9419028DE316
:1010600091E00E94760380E491E00E94760389E497
:1010700091E00E947603F80161918F01062E000C29
:10108000770B880B990B97FF73C00E94C703C0169C
:10109000D10689F76AE08DE891E00E94190289E49F
:1010A00091E00E9476038CE491E00E94760389E44B
:1010B00091E00E9476036091670170916801072EAC
:1010C000000C880B990B97FD57C04AE00E948303E0
:1010D00060E28DE891E00E941902609169017091CF
:1010E0006A01072E000C880B990B97FF48C00E94DD
:1010F000C70360E28DE891E00E94190268E270E0A7
:1011000080E090E00E94BF02A114B10409F41ECF58
:101110000E9400001BCF909180009F7D4ACF90914C
:101120008000977F46CF94B59F7794BD44CF94B508
:101130009F7DFBCF909190009F77909390003BCF45
:10114000909190009F7DF9CF90919000977FF5CF7F
:101150009091C0009F779093C0002DCF9091C000D8
:101160009F7DF9CF9091C200977F9093C20023CFCB
:101170004AE00E9483038BCF0E94C703A9CF4AE0B5
:101180000E948303B6CFEDE8F1E01382128288EE6D
:1011900093E0A0E0B0E084839583A683B78380E1E9
:1011A00091E0918380838FEF9FEF958784870895E7
:1011B000A1E21A2EAA1BBB1BFD010DC0AA1FBB1F5B
:1011C000EE1FFF1FA217B307E407F50720F0A21BCD
:1011D000B30BE40BF50B661F771F881F991F1A943A
:1011E00069F760957095809590959B01AC01BD0164
:1011F000CF010895EE0FFF1F0590F491E02D0994A3
:04120000F894FFCF90
:10120400FFFFFFFF00E100000000000000000000FD
:101214001902F1023A022F0280023E025C0200C16E
:101224008081000000131215140B070001041E0C2A
:1012340006050D1117080A09165B324A005B4800BF
:10124400427574746F6E733A000D0A004A6F7973B5
:061254007469636B3A00AF
:00000001FF
