:100000000C94DB000C9403010C9403010C94030189
:100010000C9403010C9403010C9403010C94030150
:100020000C9403010C9403010C945B050C94CA0519
:100030000C9403010C9403010C9403010C94030130
:100040000C9403010C9403010C9403010C94030120
:100050000C9403010C9403010C9403010C94FC0711
:100060000C9403010C9403010C9403010C94030100
:100070000C9403010C9403010C9403010C940301F0
:100080000C9403010C9403010C9403010C940301E0
:100090000C9446080C9403010C9403010C94030186
:1000A0000C9403010C9403010C9403010000000064
:1000B0002300260029002C002F000706050401005C
:1000C000080A0B0C0D090000000200090F000003D4
:1000D0000401000C0000000000000000000000000F
:1000E000000000000000000000250028002B002E6A
:1000F00000310000000000240027002A002D0030FD
:1001000000040404040403040502020202040302BE
:10011000020202060606060606040402020204049F
:1001200004080201104080401020408040800802F6
:10013000040180402010020110801020404020085F
:100140000B0002020200000904000001020200008C
:1001500005240010010524010101042402060524E0
:100160000600010705810310004009040100020A8E
:10017000000000070502024000000705830240005E
:10018000000403090412010002EF0201404123367A
:100190008000010102030141726475696E6F204C99
:1001A0004C430041726475696E6F204C656F6E61DF
:1001B00072646F00650911241FBECFEFDAE0DEBF65
:1001C000CDBF11E0A0E0B1E0EAE9F5E102C00590A1
:1001D0000D92A435B107D9F722E0A4E5B1E001C042
:1001E0001D92A238B207E1F710E0CBEDD0E004C0D9
:1001F0002197FE010E94C50ACA3DD107C9F70E9496
:1002000086090C94CB0A0C940000FC018091250215
:10021000882311F13FB7F89482E08093E9002091A0
:10022000F200822F90E01816190614F481E090E095
:10023000882339F0289844E6409324024091F10045
:100240004083222339F02091F200211103C02BE6D4
:100250002093E8003FBF08958FEF9FEF08952FB7D9
:10026000F89483E08093E9009091E800892F8072F0
:1002700095FF04C09091F20080E4891B2FBF089580
:1002800080911C0281110DC082E08093180284E0ED
:100290008093190210921B0210921A0281E080933F
:1002A0001C0288E192E00895CF93DF931F92CDB7AF
:1002B000DEB76983DC01ED91FC910280F381E02DD2
:1002C00041E050E0BE016F5F7F4F09950F90DF91D5
:1002D000CF91089583E08093E9008091F200882314
:1002E00019F08AE38093E80008950E942F0190E0BE
:1002F0000895CF93DF931F92CDB7DEB7FC018485BD
:10030000958597FD08C02FEF3FEF358724870F9025
:10031000DF91CF910895CE0101960E9405010197CA
:1003200019F4898190E0F3CF8FEF9FEFF0CF0F9317
:100330001F93CF93DF931F92CDB7DEB78C01FC01E3
:100340008485958597FF0BC0CE0101960E9405011B
:10035000019771F4898190E0F80195878487F8010D
:10036000848595850F90DF91CF911F910F9108950E
:100370008FEF9FEFF1CFFC018485958597FD0BC032
:100380009FB7F89482E08093E9008091F2009FBFCC
:1003900090E0019608959FB7F89482E08093E90079
:1003A0008091F2009FBF90E0089540911202509119
:1003B0001302209110023091110242175307B4F436
:1003C0009091E8009570E1F39091E80092FD19C0DA
:1003D0008093F100809112029091130201968F7325
:1003E0009927892B19F48EEF8093E80080911202EF
:1003F000909113020196909313028093120281E070
:10040000089580E00895EF92FF920F931F93CF938A
:10041000DF93F82E192FE62E042F81E0860F880F28
:100420000E94D50183E00E94D501CF2DD12FEC0E83
:10043000FD2EF11CCE15DF05B9F007FF13C0FE013C
:1004400084910E94D501182F80E00E94D50181235C
:1004500021968111EFCFDF91CF911F910F91FF90E6
:10046000EF9008958881EDCF81E0F5CFDF92EF9294
:10047000FF920F931F93CF93DF93D82E8A01EB0146
:100480007B01E40EF51ECE15DF0559F0D7FE12C034
:10049000FE0184910E94D50121968111F4CF0FEFC6
:1004A0001FEFC801DF91CF911F910F91FF90EF9047
:1004B000DF9008958881EECF0F931F93CF93DF9342
:1004C0001F92CDB7DEB782E0898342E450E06FE34C
:1004D00071E080E80E9436020E944001DC01129621
:1004E0000D911C910115110589F0D801ED91FC9138
:1004F0000280F381E02DBE016F5F7F4FC801099537
:1005000097FD04C0F80100851185ECCF89810F901B
:10051000DF91CF911F910F910895615030F020919C
:10052000F100FC0120830196F8CF289884E680939F
:1005300024020895E091F501F091F601309729F039
:100540001092F2011092F1010994089508958150DA
:100550008F3008F047C0E82FF0E0EF54FD4F0C94C7
:10056000C50ACE02D202C002C602CA02F202F202DA
:10057000F202D502DB02DF02E302E902F202ED023F
:10058000809180008F778093800008958091800013
:100590008F7DF9CF80918000877FF5CF84B58F77ED
:1005A00084BD089584B58F7DFBCF809190008F77B7
:1005B000809390000895809190008F7DF9CF809175
:1005C0009000877FF5CF8091C0008F778093C00027
:1005D00008958091C0008F7DF9CF8091C200877F00
:1005E0008093C20008951F93CF93DF93282F30E0AC
:1005F000F901EA53FF4F8491F901E05EFE4FD49177
:10060000F901EF5FFE4FC491CC23A9F0162F8111A1
:100610000E94A702EC2FF0E0EE0FFF1FEB51FF4FFF
:10062000A591B4918FB7F894EC91111108C0D095B1
:10063000DE23DC938FBFDF91CF911F910895DE2BD6
:10064000F8CF3FB7F8948091E9019091EA01A09129
:10065000EB01B091EC0126B5A89B05C02F3F19F026
:100660000196A11DB11D3FBFBA2FA92F982F882732
:10067000BC01CD01620F711D811D911D42E0660F0D
:10068000771F881F991F4A95D1F708958F929F92DF
:10069000AF92BF92CF92DF92EF92FF924B015C013B
:1006A0000E9421036B017C010E9421036C197D09CA
:1006B0008E099F09683E734081059105A8F321E0EA
:1006C000821A9108A108B10888EEC80E83E0D81EEE
:1006D000E11CF11C81149104A104B10429F7FF90DD
:1006E000EF90DF90CF90BF90AF909F908F90089544
:1006F0008F929F92AF92BF92CF92DF92EF92FF9232
:100700000F931F93CF93DF936C017B018A0180913C
:100710000C01882309F45CC080912502882309F428
:1007200057C08091170280FF05C08091E000826071
:100730008093E000E801B12C8AEFA82E93E0892E87
:100740002AE3922E209711F4BB20D9F10E942F01A9
:1007500081110AC0AA94AA20D9F161E070E080E07A
:1007600090E00E944603EECF8C171D0611F00CF0AE
:100770008C2F9FB7F8948092E9002091E80025FD26
:1007800002C09FBFDFCF282F30E0C21BD30BF70181
:10079000815020F041914093F100FACFE20EF31E18
:1007A000BB2021F09092E800B12CEBCF8091E800C3
:1007B00085FDE7CF9092E800BB24B394209709F31E
:1007C000F3CF5D9884E680931602101611063CF074
:1007D00081E090E0F6019383828310E000E0C8019D
:1007E000DF91CF911F910F91FF90EF90DF90CF900D
:1007F000BF90AF909F908F90089520919A01260FFF
:100800003327331F21323105ECF42091BE01FC0166
:1008100090E080E0243069F082E00895A0919A0190
:100820002191AC0146585E4FA40FB52FB11D2C93FA
:100830000196861798F380919A01680F60939A0148
:1008400080E0089581E008951092BE0181E08093D8
:10085000C0011092BF0161E082E00E94F30261E0FA
:1008600083E00E94F302E9EBF0E080818E7F8083D9
:1008700080818D7F808388E48093B80085E48093B5
:10088000BC0008950895E091F4018091F301E81708
:1008900030F4F0E0EC5AFE4F808190E008958FEF45
:1008A0009FEF08959091F4018091F3012FEF3FEFB6
:1008B000981748F4E92FF0E0EC5AFE4F208130E021
:1008C0009F5F9093F401C90108958091F301909185
:1008D000F401891B990B0895CF93DF93CB01EA01B3
:1008E000642F0E94FD03CE01DF91CF910895CF9335
:1008F000DF931F92CDB7DEB7698361E0CE01019629
:100900000E94FD0381E090E00F90DF91CF91089568
:1009100090E080E00895EF92FF920F931F93CF93A2
:10092000DF93C1E1D1E008EF11E0299130E0F90156
:10093000EA53FF4F8491F901E05EFE4FE490F90124
:10094000EF5FFE4FF490FF2009F45BC081110E941D
:10095000A702EF2DF0E0EE0FFF1FE455FF4FA5912A
:10096000B491EC91EE2231E020E009F430E0832FE5
:10097000922F21E08227F80181938F01F1E0C132AB
:10098000DF0799F6ADE0B1E0C8E0D2E02FE031E05A
:10099000ED91E23108F0E251F0E0E654FF4FE491CE
:1009A00090917B008E2F880F880F80729F7D892BFE
:1009B00080937B00E770E064E0937C0080917A0094
:1009C000806480937A0080917A0086FDFCCF9091BC
:1009D00078008091790089279827892789939993AE
:1009E0002A173B07A9F648E150E068EF71E086E777
:1009F00092E0DF91CF911F910F91FF90EF900C94B7
:100A00006C0490E080E0B5CFCF93DF9385ED8093C9
:100A1000BC008091760190917701A0917801B0910E
:100A200079010796A11DB11D23E0B695A79597956D
:100A300087952A95D1F72091BC0024FD03C0109220
:100A4000BE0136C0409176015091770160917801E6
:100A500070917901452B462B472B69F30097A1052F
:100A6000B10541F025E32A95F1F700000197A109AE
:100A7000B109E1CF8091750191E0909374018823D1
:100A8000B9F0C091B800D091BA008091BC008A7BC7
:100A90008093BC0060E082E00E94F30260E083E0AB
:100AA0000E94F3020E942404D093BA00C093B800BD
:100AB000DF91CF9108951F920F920FB60F921124DC
:100AC0008F939F938091E1009091E100937F9093A9
:100AD000E10083FF0FC01092E90091E09093EB00DA
:100AE0001092EC0092E39093ED001092250298E0B2
:100AF0009093F00082FF22C093E09093E9009091E0
:100B0000F200992319F09AE39093E800909116026D
:100B1000992341F0909116029150909316029111F1
:100B200001C05D9A90912402992341F09091240292
:100B3000915090932402911101C0289A84FF18C00B
:100B40008091E2008E7E81608093E2008091E100DE
:100B50008F7E8093E100809117028E7E806180936A
:100B600017029F918F910F900FBE0F901F901895B5
:100B700080FFF7CF8091E2008E7E80618093E2005B
:100B80008091E1008E7E8093E100809117028E7E3D
:100B90008160E5CF1F920F920FB60F921124CF9272
:100BA000DF92EF92FF920F931F932F933F934F93F8
:100BB0005F936F937F938F939F93AF93BF93EF93C5
:100BC000FF93CF93DF93CDB7DEB76C97DEBFCDBF7A
:100BD0001092E9008091E80083FF25C068E0CE0113
:100BE00045960E948D0282EF8093E8008D8987FFF1
:100BF00039C09091E80090FFFCCF982F907609F0D3
:100C000034C19E894F89588D2F89F88C911131C03C
:100C1000803861F5809115028093F1001092F10007
:100C20008EEF8093E8006C960FB6F894DEBF0FBE8F
:100C3000CDBFDF91CF91FF91EF91BF91AF919F9188
:100C40008F917F916F915F914F913F912F911F9164
:100C50000F91FF90EF90DF90CF900F900FBE0F900D
:100C60001F9018959EEF9093E800C7CF1092F10067
:100C7000D5CF913059F48111D3CF4130510581F650
:100C8000809115028D7F80931502CACF933049F46D
:100C90008111C6CF4130510519F68091150282604D
:100CA000F2CF953041F48091E80080FFFCCF2068BE
:100CB0002093E300B5CF963009F0A9C00B8D1C8DB1
:100CC00022E01092E9001092130210921202F21226
:100CD0002EC010921102109210020E945C021F821C
:100CE00099E09983FA8291E09E8390EA98879AEF3F
:100CF00099872091120230911302275F3F4F3C8366
:100D00002B838D831092E90010921302109212022D
:100D1000109311020093100249E050E0BE016F5F92
:100D20007F4F80E00E9436020E945C0279CF1093D0
:100D30001102009310020E944001DC0112960D91F5
:100D40001C910115110509F451C1D801ED91FC91D7
:100D50000480F581E02DBE016B5E7F4FC8010995CF
:100D6000009709F03EC1F80100851185EACFF3E054
:100D7000FF120EC08F89882309F440C0823061F4CD
:100D800040E860E183EA91E00E940302811148CFCC
:100D900081E28093EB0047CF813029F440E86BE09B
:100DA00087E991E0F1CF833099F70E944001DC019F
:100DB0001296ED90FC908E010F5F1F4F6801E114B9
:100DC000F10479F0D701ED91FC910680F781E02DD7
:100DD000B801C7010995080F111DF701E084F184DE
:100DE000EECFD8011C92F60101900020E9F731976F
:100DF000BF016C197D0940E0C601C6CF61E871E012
:100E0000FB01449150E080E80E94360209CF973000
:100E100009F4BECF983021F481E08093F10000CF37
:100E2000993009F0FDCE837009F0B2CFEAE2F1E02B
:100E300081E031E096E32191222371F08093E90073
:100E40003093EB00DF0111972C912093EC009093ED
:100E5000ED008F5F873079F78EE78093EA0010927C
:100E6000EA008F8980932502DBCE8B8D9C8D1092BA
:100E7000E9001092130210921202909311028093D3
:100E80001002898D811192C08E899D89913A49F411
:100E9000813209F07DCF47E050E065E071E080E00D
:100EA000B3CF913209F074CF833269F48F89988D72
:100EB000B0E0A0E08093010190930201A0930301B0
:100EC000B0930401ADCE803269F48091E80082FFD6
:100ED000FCCF67E085E091E00E948D028BEF80936C
:100EE000E8009ECE823209F09BCE8F8980930C0160
:100EF000EEEFFFE7859194918B3F9C4D51F1E0E03F
:100F0000F8E08091050190910601A0910701B09150
:100F10000801803B9440A105B105F1F480910C01DA
:100F200080FD1AC0EE3F8AE0F80789F587E797E76A
:100F300091838083809160008093140288E19BE01C
:100F40000FB6F894A895809360000FBE9093600050
:100F500067CEEEEFFAE0D5CF808191818737974752
:100F600009F05ECEA8958091600088618093600052
:100F70008091140280936000EE3F2AE0F20789F02E
:100F80008091FE0A9091FF0A9183808349CE8081EF
:100F900091818737980751F29093FF0A8093FE0A58
:100FA000C5CF1092FF0A1092FE0A3ACE0E9440016D
:100FB000DC0112960D911C910115110509F4E8CE82
:100FC000D801ED91FC910190F081E02DBE016B5EA6
:100FD0007F4FC8010995811123CEF8010085118545
:100FE000EBCF181619060CF41BCED2CEF1E0FF128F
:100FF000BECE65E871E004CF1F920F920FB60F923C
:1010000011242F933F938F939F93AF93BF9380911E
:10101000E5019091E601A091E701B091E8013091DE
:10102000E40123E0230F2D3758F50196A11DB11DD2
:101030002093E4018093E5019093E601A093E701FA
:10104000B093E8018091E9019091EA01A091EB0150
:10105000B091EC010196A11DB11D8093E90190931F
:10106000EA01A093EB01B093EC01BF91AF919F9186
:101070008F913F912F910F900FBE0F901F90189559
:1010800026E8230F0296A11DB11DD2CF1F920F9209
:101090000FB60F9211242F933F934F935F936F934B
:1010A0007F938F939F93AF93BF93EF93FF93809121
:1010B000B900887F803609F44AC0F0F5883209F417
:1010C000A7C018F5803109F49BC0B8F4882309F44F
:1010D000F9C0883009F494C0FF91EF91BF91AF91AE
:1010E0009F918F917F916F915F914F913F912F9140
:1010F0000F900FBE0F901F901895883109F488C08B
:10110000803251F78093BD0114C0803409F49DC032
:1011100040F48033B9F38833F9F68093BD0185EC50
:10112000B0C0803509F485C0883509F496C088348C
:1011300099F60E940405D0CF883909F48CC038F59F
:10114000883729F050F4883611F0803729F683E08B
:101150008093BE011092BC0157C0883809F47BC04F
:10116000803919F0803809F0B7CF8091BC01803206
:1011700008F071C0E091BC0181E08E0F8093BC014A
:101180008091BB00F0E0E456FE4F80833DC0803B81
:1011900039F0E0F4803A09F479C0883A09F09CCF3C
:1011A00084E08093BE0110929B0110929A01E0911D
:1011B000EF01F091F001099580919A0181110FC022
:1011C00081E080939A0110927A0109C0803C09F471
:1011D000A6CF883C09F4A3CF883B09F07DCFE091EE
:1011E0009B0181E08E0F80939B01F0E0E658FE4F5B
:1011F00080818093BB0090919B0180919A0129C0CE
:101200008091E3018093BB0085EC8093BC0064CFA8
:101210009091E2018091E101981758F5E091E20187
:1012200081E08E0F8093E201F0E0EF53FE4F80816A
:10123000E9CFE091E20181E08E0F8093E20180919D
:10124000BB00F0E0EF53FE4F80839091E20180916C
:10125000E1019817C8F285E8D8CFE091E20181E07A
:101260008E0F8093E2018091BB00F0E0EF53FE4FC0
:1012700080838091C00181115CCF81E08093BF01A8
:1012800084EA8093BC001092BE0126CF85EC809347
:10129000BC001092BE018091BC01803230F4E0911C
:1012A000BC01F0E0E456FE4F10826091BC0170E09A
:1012B000E091ED01F091EE018CE991E00995109239
:1012C000BC010ACF1092BD0134CFE6E2F2E01382F6
:1012D000128288EE93E0A0E0B0E084839583A68339
:1012E000B78324E331E0318320832FEF3FEF35874D
:1012F0002487E6E7F2E01382128284839583A68333
:10130000B78386E491E0918380830895789484B5CF
:10131000826084BD84B5816084BD85B5826085BDF1
:1013200085B5816085BD80916E00816080936E007F
:101330001092810080918100826080938100809171
:101340008100816080938100809180008160809322
:101350008000809191008260809391008091910043
:1013600081608093910080919000816080939000D3
:101370008091C10084608093C1008091C10082602F
:101380008093C1008091C10081608093C1008091F1
:10139000C30081608093C3008091C000826080930D
:1013A000C0008091C20081608093C20080917A0069
:1013B000846080937A0080917A00826080937A00C2
:1013C00080917A00816080937A0080917A008068B1
:1013D00080937A0010922502109215021092170243
:1013E0008091D70081608093D70080EA8093D800F5
:1013F00089B5806189BD89B5826089BD09B400FE67
:10140000FDCF61E070E080E090E00E9446038091B3
:10141000D8008F7C80618093D8008091E000807F2D
:101420008093E0008091E1008E7E8093E1008DE06A
:101430008093E200559A209AA1E1B1E08D9190E06D
:10144000FC01E05EFE4F24918F5F9E4FFC01849172
:101450008823C9F090E0880F991FFC01ED50FF4FE1
:1014600045915491FC01EB51FF4FC591D4919FB729
:10147000F894FA013081822F809583238083E8815C
:101480002E2B28839FBFF1E0A132BF07B9F6EAE215
:10149000F1E02491EBE0F1E08491882399F090E071
:1014A000880F991FFC01ED50FF4FA591B491FC01ED
:1014B000EB51FF4F859194918FB7F894EC91E22B0B
:1014C000EC938FBF1092F4011092F3011092F2018D
:1014D0001092F1010E9424048AE992E09093F001B5
:1014E0008093EF0186EA92E09093EE018093ED0104
:1014F00080E18093BA008BE894E09093F6018093AA
:10150000F50110920D0210920C0210920F0210922F
:101510000E0281E08093800089E080938100109228
:10152000820083E390E090938B0080938A00269A58
:1015300080918000806280938000C0E0D0E0809144
:101540000001811113C08091F901882379F0E091A5
:10155000F701EF5FE093F701E770F0E0EF5DFE4F1A
:10156000808190E090938B0080938A008091F901B4
:101570008093000164E170E080E090E00E94460307
:101580002097E9F20E940000DACFEE0FFF1F0590CE
:0A159000F491E02D0994F894FFCFC8
:10159A0001FFFFFFFF00E100000000000013121529
:1015AA00140B070001041E0C06050D1117080F097C
:1015BA0016010514336699CCFF00C1808100000032
:1015CA00000000005401780375016A01BB0179012A
:1015DA0097010000000077046C0488044204650443
:0415EA005204430460
:00000001FF
