:100000000C94DA000C9402010C9402010C9402018D
:100010000C9402010C9402010C9402010C94020154
:100020000C9402010C9402010C94B8040C94270562
:100030000C9402010C9402010C9402010C94020134
:100040000C9402010C9402010C9402010C94020124
:100050000C9402010C9402010C9402010C945907B7
:100060000C9402010C9402010C9402010C94020104
:100070000C9402010C9402010C9402010C940201F4
:100080000C9402010C9402010C9402010C940201E4
:100090000C94A3070C9402010C9402010C9402012D
:1000A0000C9402010C9402010C940201080B000252
:1000B0000202000009040000010202000005240001
:1000C0001001052401010104240206052406000193
:1000D0000705810310004009040100020A00000026
:1000E00007050202400000070583024000000403E8
:1000F000090412010002EF02014041233780000190
:100100000102030141726475696E6F204C4C43001B
:1001100041726475696E6F204D6963726F000000F3
:100120000000250028002B002E00310000000000F8
:10013000240027002A002D003000000000002300CA
:10014000260029002C002F000404040404030405E5
:100150000202020204030202020206060606060664
:10016000040402020204040408020110408040104A
:1001700020408040800802040180402010020110CD
:100180008010204040200000000200090F00000302
:100190000401000C0000000000000000000000004E
:1001A0000000000000070605040100080A0B0C0D02
:1001B0000900C20811241FBECFEFDAE0DEBFCDBFB9
:1001C00011E0A0E0B1E0E8EBF4E102C005900D928F
:1001D000A235B107D9F722E0A2E5B1E001C01D9236
:1001E000A937B207E1F710E0CAEDD0E004C02197CB
:1001F000FE010E94540AC93DD107C9F70E94E308D5
:100200000C945A0A0C940000FC0180911C02882373
:1002100011F13FB7F89482E08093E9002091F20059
:10022000822F90E01816190614F481E090E08823DC
:1002300039F0289A44E640931B024091F100408334
:10024000222339F02091F200211103C02BE62093E4
:10025000E8003FBF08958FEF9FEF08952FB7F89400
:1002600083E08093E9009091E800892F807295FFE8
:1002700004C09091F20080E4891B2FBF0895809103
:10028000130281110DC082E080930F0284E08093FD
:100290001002109212021092110281E08093130258
:1002A0008FE092E00895089508954091ED015091F6
:1002B000EE012091EB013091EC0142175307B4F4A9
:1002C0009091E8009570E1F39091E80092FD19C0DB
:1002D0008093F1008091ED019091EE0101968F7372
:1002E0009927892B19F48EEF8093E8008091ED0116
:1002F0009091EE0101969093EE018093ED0181E0E3
:10030000089580E00895EF92FF920F931F93CF938B
:10031000DF93F82E192FE62E042F81E0860F880F29
:100320000E94550183E00E945501CF2DD12FEC0E84
:10033000FD2EF11CCE15DF05B9F007FF13C0FE013D
:1003400084910E945501182F80E00E94550181235D
:1003500021968111EFCFDF91CF911F910F91FF90E7
:10036000EF9008958881EDCF81E0F5CFDF92EF9295
:10037000FF920F931F93CF93DF93D82E8A01EB0147
:100380007B01E40EF51ECE15DF0559F0D7FE12C035
:10039000FE0184910E94550121968111F4CF0FEF47
:1003A0001FEFC801DF91CF911F910F91FF90EF9048
:1003B000DF9008958881EECF0F931F93CF93DF9343
:1003C0001F92CDB7DEB782E0898342E450E06CEA49
:1003D00070E080E80E94B6010E943F01DC011296A5
:1003E0000D911C910115110589F0D801ED91FC9139
:1003F0000280F381E02DBE016F5F7F4FC801099538
:1004000097FD04C0F80100851185ECCF89810F901C
:10041000DF91CF911F910F910895615030F020919D
:10042000F100FC0120830196F8CF289A84E680939E
:100430001B020895CF93DF931F92CDB7DEB7698378
:10044000DC01ED91FC910280F381E02D41E050E070
:10045000BE016F5F7F4F09950F90DF91CF91089597
:1004600083E08093E9008091F200882319F08AE309
:100470008093E80008950E942E0190E00895CF93A4
:10048000DF931F92CDB7DEB7FC018485958597FD7C
:1004900008C02FEF3FEF358724870F90DF91CF9172
:1004A0000895CE0101960E940401019719F48981F3
:1004B00090E0F3CF8FEF9FEFF0CF0F931F93CF9389
:1004C000DF931F92CDB7DEB78C01FC018485958543
:1004D00097FF0BC0CE0101960E940401019771F4B1
:1004E000898190E0F80195878487F8018485958556
:1004F0000F90DF91CF911F910F9108958FEF9FEF94
:10050000F1CFFC018485958597FD0BC09FB7F894CA
:1005100082E08093E9008091F2009FBF90E0019615
:1005200008959FB7F89482E08093E9008091F200EB
:100530009FBF90E0089581508F3008F047C0E82FAA
:10054000F0E0EB55FD4F0C94540AC202C602B4020F
:10055000BA02BE02E602E602E602C902CF02D302F6
:10056000D702DD02E602E102809180008F7780935E
:1005700080000895809180008F7DF9CF8091800068
:10058000877FF5CF84B58F7784BD089584B58F7D3F
:10059000FBCF809190008F77809390000895809199
:1005A00090008F7DF9CF80919000877FF5CF80916B
:1005B000C0008F778093C00008958091C0008F7D28
:1005C000F9CF8091C200877F8093C20008951F9366
:1005D000CF93DF93282F30E0F901EA57FE4F849143
:1005E000F901E959FE4FD491F901E85BFE4FC4913E
:1005F000CC23A9F0162F81110E949B02EC2FF0E072
:10060000EE0FFF1FE25EFE4FA591B4918FB7F894F5
:10061000EC91111108C0D095DE23DC938FBFDF91E0
:10062000CF911F910895DE2BF8CF3FB7F8948091BA
:10063000E7019091E801A091E901B091EA0126B5A6
:10064000A89B05C02F3F19F00196A11DB11D3FBF0A
:10065000BA2FA92F982F8827BC01CD01620F711DD9
:10066000811D911D42E0660F771F881F991F4A95D3
:10067000D1F70895CF92DF92EF92FF920E94150377
:100680006B017C010E9415036C197D098E099F097D
:10069000683E734081059105A8F3FF90EF90DF90CD
:1006A000CF9008958F929F92AF92BF92CF92DF9298
:1006B000EF92FF920F931F93CF93DF936C017B0117
:1006C0008A0180910B01882309F458C080911C0293
:1006D000882309F453C08091F10180FF05C0809107
:1006E000E00082608093E000E801B12C8AEFA82E40
:1006F00093E0892E2AE3922E209711F4BB20B9F1C2
:100700000E942E01811106C0AA94AA20B9F10E946C
:100710003A03F2CF8C171D0611F00CF08C2F9FB707
:10072000F8948092E9002091E80025FD02C09FBF67
:10073000E3CF282F30E0C21BD30BF701815020F00C
:1007400041914093F100FACFE20EF31EBB2021F05D
:100750009092E800B12CEBCF8091E80085FDE7CFC7
:100760009092E800BB24B394209709F3F3CF5D9AED
:1007700084E68093F001101611063CF081E090E0D1
:10078000F6019383828310E000E0C801DF91CF91EE
:100790001F910F91FF90EF90DF90CF90BF90AF909F
:1007A0009F908F90089520919801260F3327331F33
:1007B00021323105ECF42091BC01FC0190E080E095
:1007C000243069F082E00895A09198012191AC0154
:1007D00048585E4FA40FB52FB11D2C930196861774
:1007E00098F380919801680F6093980180E00895D4
:1007F00081E008951092BC0181E08093BE011092C7
:10080000BD0161E082E00E94E70261E083E00E94B6
:10081000E702E9EBF0E080818E7F808380818D7F2D
:10082000808388E48093B80085E48093BC000895B9
:100830000895E091FA018091F901E81730F4F0E0B1
:10084000EE5AFE4F808190E008958FEF9FEF08955C
:100850009091FA018091F9012FEF3FEF981748F43A
:10086000E92FF0E0EE5AFE4F208130E09F5F909339
:10087000FA01C90108958091F9019091FA01891B4B
:10088000990B0895CF93DF93CB01EA01642F0E9467
:10089000D303CE01DF91CF910895CF93DF931F92C1
:1008A000CDB7DEB7698361E0CE0101960E94D30324
:1008B00081E090E00F90DF91CF91089590E080E08B
:1008C0000895CF93DF9385ED8093BC0080917401F0
:1008D00090917501A0917601B09177010796A11DC5
:1008E000B11D23E0B695A795979587952A95D1F7E1
:1008F0002091BC0024FD03C01092BC0136C0409181
:100900007401509175016091760170917701452BCA
:10091000462B472B69F30097A105B10541F025E36C
:100920002A95F1F700000197A109B109E1CF809163
:10093000730191E0909372018823B9F0C091B800DF
:10094000D091BA008091BC008A7B8093BC0060E0AB
:1009500082E00E94E70260E083E00E94E7020E94DA
:10096000FA03D093BA00C093B800DF91CF910895F5
:100970001F920F920FB60F9211248F939F93809125
:10098000E1009091E100937F9093E10083FF0FC01D
:100990001092E90091E09093EB001092EC0092E34A
:1009A0009093ED0010921C0298E09093F00082FF6B
:1009B00022C093E09093E9009091F200992319F0FE
:1009C0009AE39093E8009091F001992341F090917F
:1009D000F00191509093F001911101C05D989091B8
:1009E0001B02992341F090911B02915090931B029E
:1009F000911101C0289884FF18C08091E2008E7E7A
:100A000081608093E2008091E1008F7E8093E1001D
:100A10008091F1018E7E80618093F1019F918F9191
:100A20000F900FBE0F901F90189580FFF7CF809109
:100A3000E2008E7E80618093E2008091E1008E7EF4
:100A40008093E1008091F1018E7E8160E5CF1F925D
:100A50000F920FB60F921124CF92DF92EF92FF9276
:100A60000F931F932F933F934F935F936F937F93B6
:100A70008F939F93AF93BF93EF93FF93CF93DF93A6
:100A8000CDB7DEB76C97DEBFCDBF1092E900809185
:100A9000E80083FF25C068E0CE0145960E940D0264
:100AA00082EF8093E8008D8987FF39C09091E8003C
:100AB00090FFFCCF982F907609F034C19E894F8922
:100AC000588D2F89F88C911131C0803861F5809153
:100AD000F2018093F1001092F1008EEF8093E80014
:100AE0006C960FB6F894DEBF0FBECDBFDF91CF91ED
:100AF000FF91EF91BF91AF919F918F917F916F91F6
:100B00005F914F913F912F911F910F91FF90EF9027
:100B1000DF90CF900F900FBE0F901F9018959EEF13
:100B20009093E800C7CF1092F100D5CF913059F4DF
:100B30008111D3CF4130510581F68091F2018D7F33
:100B40008093F201CACF933049F48111C6CF41306E
:100B5000510519F68091F2018260F2CF953041F48F
:100B60008091E80080FFFCCF20682093E300B5CFA0
:100B7000963009F0A9C00B8D1C8D22E01092E9007F
:100B80001092EE011092ED01F2122EC01092EC01C3
:100B90001092EB010E94DC011F8299E09983FA8296
:100BA00091E09E8390EA98879AEF99872091ED01D2
:100BB0003091EE01275F3F4F3C832B838D83109252
:100BC000E9001092EE011092ED011093EC010093F8
:100BD000EB0149E050E0BE016F5F7F4F80E00E9473
:100BE000B6010E94DC0179CF1093EC010093EB0178
:100BF0000E943F01DC0112960D911C910115110517
:100C000009F451C1D801ED91FC910480F581E02DEA
:100C1000BE016B5E7F4FC8010995009709F03EC188
:100C2000F80100851185EACFF3E0FF120EC08F892D
:100C3000882309F440C0823061F440E86DE080E12F
:100C400091E00E948301811148CF81E28093EB0003
:100C500047CF813029F440E86BE084E091E0F1CFA8
:100C6000833099F70E943F01DC011296ED90FC90D1
:100C70008E010F5F1F4F6801E114F10479F0D70175
:100C8000ED91FC910680F781E02DB801C70109952F
:100C9000080F111DF701E084F184EECFD8011C92FA
:100CA000F60101900020E9F73197BF016C197D0929
:100CB00040E0C601C6CF6EEE70E0FB01449150E00B
:100CC00080E80E94B60109CF973009F4BECF983072
:100CD00021F481E08093F10000CF993009F0FDCE3E
:100CE000837009F0B2CFEDE0F1E081E031E096E30E
:100CF0002191222371F08093E9003093EB00DF0112
:100D000011972C912093EC009093ED008F5F87302A
:100D100079F78EE78093EA001092EA008F8980933A
:100D20001C02DBCE8B8D9C8D1092E9001092EE019F
:100D30001092ED019093EC018093EB01898D81116C
:100D400092C08E899D89913A49F4813209F07DCF14
:100D500047E050E064E071E080E0B3CF913209F009
:100D600074CF833269F48F89988DB0E0A0E08093CE
:100D7000000190930101A0930201B0930301ADCE55
:100D8000803269F48091E80082FFFCCF67E084E064
:100D900091E00E940D028BEF8093E8009ECE82329C
:100DA00009F09BCE8F8980930B01EEEFFFE78591D1
:100DB00094918B3F9C4D51F1E0E0F8E0809104016B
:100DC00090910501A0910601B0910701803B9440EC
:100DD000A105B105F1F480910B0180FD1AC0EE3F31
:100DE0008AE0F80789F587E797E791838083809108
:100DF00060008093EF0188E19BE00FB6F894A8951E
:100E0000809360000FBE9093600067CEEEEFFAE033
:100E1000D5CF808191818737974709F05ECEA8951D
:100E2000809160008861809360008091EF018093E1
:100E30006000EE3F2AE0F20789F08091FE0A90916F
:100E4000FF0A9183808349CE8081918187379807FB
:100E500051F29093FF0A8093FE0AC5CF1092FF0AC9
:100E60001092FE0A3ACE0E943F01DC0112960D91CB
:100E70001C910115110509F4E8CED801ED91FC9102
:100E80000190F081E02DBE016B5E7F4FC801099596
:100E9000811123CEF80100851185EBCF18161906B4
:100EA0000CF41BCED2CEF1E0FF12BECE62EF70E0AA
:100EB00004CF1F920F920FB60F9211242F933F93DE
:100EC0008F939F93AF93BF938091E3019091E4013F
:100ED000A091E501B091E6013091E20123E0230FFA
:100EE0002D3758F50196A11DB11D2093E201809385
:100EF000E3019093E401A093E501B093E6018091B2
:100F0000E7019091E801A091E901B091EA01019611
:100F1000A11DB11D8093E7019093E801A093E90121
:100F2000B093EA01BF91AF919F918F913F912F9123
:100F30000F900FBE0F901F90189526E8230F029672
:100F4000A11DB11DD2CF1F920F920FB60F92112487
:100F50002F933F934F935F936F937F938F939F93C1
:100F6000AF93BF93EF93FF938091B900887F803652
:100F700009F44AC0F0F5883209F4A7C018F58031A9
:100F800009F49BC0B8F4882309F4F9C0883009F447
:100F900094C0FF91EF91BF91AF919F918F917F91FD
:100FA0006F915F914F913F912F910F900FBE0F90D6
:100FB0001F901895883109F488C0803251F78093CA
:100FC000BB0114C0803409F49DC040F48033B9F3F0
:100FD0008833F9F68093BB0185ECB0C0803509F405
:100FE00085C0883509F496C0883499F60E9461045A
:100FF000D0CF883909F48CC038F5883729F050F4FF
:10100000883611F0803729F683E08093BC01109276
:10101000BA0157C0883809F47BC0803919F080388C
:1010200009F0B7CF8091BA01803208F071C0E09129
:10103000BA0181E08E0F8093BA018091BB00F0E08D
:10104000E656FE4F80833DC0803B39F0E0F4803AA5
:1010500009F479C0883A09F09CCF84E08093BC0100
:101060001092990110929801E091F501F091F6012A
:1010700009958091980181110FC081E080939801BA
:101080001092780109C0803C09F4A6CF883C09F48D
:10109000A3CF883B09F07DCFE091990181E08E0FCD
:1010A00080939901F0E0E858FE4F80818093BB0067
:1010B000909199018091980129C08091E1018093DC
:1010C000BB0085EC8093BC0064CF9091E0018091DF
:1010D000DF01981758F5E091E00181E08E0F8093D1
:1010E000E001F0E0E154FE4F8081E9CFE091E001C2
:1010F00081E08E0F8093E0018091BB00F0E0E1542D
:10110000FE4F80839091E0018091DF019817C8F233
:1011100085E8D8CFE091E00181E08E0F8093E00177
:101120008091BB00F0E0E154FE4F80838091BE01CE
:1011300081115CCF81E08093BD0184EA8093BC0083
:101140001092BC0126CF85EC8093BC001092BC01AC
:101150008091BA01803230F4E091BA01F0E0E656B5
:10116000FE4F10826091BA0170E0E091F301F091BE
:10117000F4018AE991E009951092BA010ACF109220
:10118000BB0134CFEDE1F2E01382128288EE93E0EE
:10119000A0E0B0E084839583A683B7832BE231E09F
:1011A000318320832FEF3FEF35872487EDE6F2E090
:1011B0001382128284839583A683B7838DE391E0A3
:1011C000918380830895789484B5826084BD84B5CA
:1011D000816084BD85B5826085BD85B5816085BD32
:1011E00080916E00816080936E00109281008091EA
:1011F0008100826080938100809181008160809372
:1012000081008091800081608093800080919100B6
:101210008260809391008091910081608093910021
:10122000809190008160809390008091C1008460E3
:101230008093C1008091C10082608093C100809141
:10124000C10081608093C1008091C3008160809360
:10125000C3008091C00082608093C0008091C20072
:1012600081608093C20080917A00846080937A00CC
:1012700080917A00826080937A0080917A00816008
:1012800080937A0080917A00806880937A0010922F
:101290001C021092F2011092F1018091D70081603E
:1012A0008093D70080EA8093D80089B5806189BD9A
:1012B00089B5826089BD09B400FEFDCF0E943A0362
:1012C0008091D8008F7C80618093D8008091E0006D
:1012D000807F8093E0008091E1008E7E8093E1002A
:1012E0008DE08093E200559A209A5D98289827E235
:1012F00031E0C7E1D1E0899190E0FC01E959FE4F6E
:101300004491885B9E4FFC0184918823C9F090E052
:10131000880F991FFC01E45DFE4FA591B491FC017B
:10132000E25EFE4F659174919FB7F8945C91842FB3
:10133000809585238C93DB01EC914E2B4C939FBFC2
:101340002C173D07C1F61092FA011092F901109284
:10135000F8011092F7010E94FA0383E591E090935F
:10136000F6018093F50184E591E09093F401809378
:10137000F3018FEF9FEF90932A028093290227E1D8
:10138000C22E21E0D22E30E0A32E30E0B32E9BEF10
:10139000E92E91E0F92E07E111E0F80121918F018A
:1013A00030E0F901EA57FE4F8491F901E959FE4F07
:1013B0009490F901E85BFE4F8490882079F08111C8
:1013C0000E949B02E82DF0E0EE0FFF1FE65CFE4F4F
:1013D000A591B491EC919E2281E009F480E0D701BF
:1013E0008D937D01C017D107C1F6A3E1B1E08BE079
:1013F00092E0ED91E23108F0E251F0E0EB55FE4F62
:10140000E49130917B002E2F220F220F20723F7D1E
:10141000232B20937B00E770E064E0937C00209115
:101420007A00206420937A0020917A0026FDFCCF78
:101430003091780020917900232732272327FC015F
:1014400021933193CF01CA16DB0699F66BE18DE14A
:1014500092E00E941A0243E050E06BE471E08DE1FB
:1014600092E00E9452036BE18DE192E00E941A0229
:1014700042E050E06FE471E08DE192E00E9452039F
:1014800018E148E150E06BEF71E08DE192E00E94DD
:1014900052031150B1F70E943A03A114B10409F4A8
:1014A00076CF0E94000073CFEE0FFF1F0590F491DE
:0814B000E02D0994F894FFCF30
:1014B800FFFFFFFF00E100000000000000C1808185
:1014C800000000131215140B070001041E0C06057A
:1014D8000D1117080A0916000000001A0252033BF2
:1014E80002300281023F025D02000000004D04420A
:1014F800045E0418043B04280419045B324A005BA8
:02150800480099
:00000001FF
